:020000040800F2
:1000000000000220050E0008D1460008DF46000867
:10001000E7460008EF460008F74600080000000029
:100020000000000000000000000000005155000822
:10003000FF4600080000000081550008DD5100085F
:10004000550E0008550E0008550E0008550E000804
:10005000550E0008550E0008550E0008550E0008F4
:10006000550E0008550E0008550E0008550E0008E4
:10007000550E0008550E0008550E0008550E0008D4
:10008000550E0008550E0008550E0008550E0008C4
:10009000550E0008550E0008550E0008550E0008B4
:1000A000550E0008550E0008550E0008550E0008A4
:1000B000550E0008550E0008550E0008550E000894
:1000C000550E0008550E0008550E0008550E000884
:1000D000550E0008550E0008550E0008550E000874
:1000E000550E0008550E000800000000550E0008CF
:1000F000550E0008550E0008550E0008550E000854
:10010000550E0008550E0008550E0008550E000843
:10011000550E0008550E0008550E0008550E000833
:10012000550E0008550E0008550E0008550E000823
:10013000550E0008550E0008550E0008550E000813
:1001400000000000000000000000000000000000AF
:10015000550E0008550E0008550E0008550E0008F3
:10016000550E0008550E0008550E0008550E0008E3
:10017000550E0008550E0008550E0008550E0008D3
:10018000550E0008550E0008550E0008550E0008C3
:10019000550E0008550E0008550E0008550E0008B3
:1001A000550E0008550E0008550E0008550E0008A3
:1001B000550E0008550E0008550E0008550E000893
:1001C000550E0008550E0008550E0008550E000883
:1001D000550E0008550E0008550E0008550E000873
:1001E000550E0008550E0008550E0008550E000863
:1001F000550E0008550E0008550E0008550E000853
:10020000550E0008550E0008550E0008550E000842
:10021000550E0008550E0008550E0008550E000832
:10022000550E0008550E0008550E0008000000008D
:10023000550E0008550E000800000000550E00087D
:10024000550E0008550E0008550E0008550E000802
:10025000550E0008550E0008550E0008550E0008F2
:10026000550E0008550E0008550E0008550E0008E2
:10027000550E0008550E0008550E0008000000003D
:10028000550E0008550E0008550E0008000000002D
:0802900000000000550E0008FB
:1002A00053B94AB9002908BF00281CBF4FF0FF31DD
:1002B0004FF0FF3000F00CB8ADF1080C6DE904CE42
:1002C00005F0B6F9DDF804E0DDE9022304B070477B
:1002D000704700BF000000000000000000000000A8
:1002E00001F0FF01102A2BDB10F0070F08D010F8E7
:1002F000013B013A8B422DD010F0070F42B3F6D1EB
:10030000F0B441EA012141EA014122F007047FF003
:1003100000070023F0E80256083C85EA010586EA5A
:10032000010685FA47F5A3FA87F586FA47F6A5FA96
:1003300087F68EB9EED1F0BC01F0FF0102F00702A2
:1003400032B110F8013B013A83EA010313B1F8D14D
:100350000020704701387047002D06BF354603382E
:10036000073815F0010F07D1013015F4807F02BF67
:10037000013015F4C03F0130F0BC0138704700BFB8
:10038000034613F8012B002AFBD1181A01387047D5
:1003900081F0004102E000BF83F0004330B54FEA36
:1003A00041044FEA430594EA050F08BF90EA020FA3
:1003B0001FBF54EA000C55EA020C7FEA645C7FEA36
:1003C000655C00F0E2804FEA5454D4EB5555B8BF59
:1003D0006D420CDD2C4480EA020281EA030382EACA
:1003E000000083EA010180EA020281EA0303362D5C
:1003F00088BF30BD11F0004F4FEA01314FF4801C2F
:100400004CEA113102D0404261EB410113F0004F40
:100410004FEA03334CEA133302D0524263EB4303F7
:1004200094EA050F00F0A780A4F10104D5F1200E95
:100430000DDB02FA0EFC22FA05F2801841F10001F0
:1004400003FA0EF2801843FA05F359410EE0A5F1C4
:1004500020050EF1200E012A03FA0EFC28BF4CF0F5
:10046000020C43FA05F3C01851EBE37101F00045AB
:1004700007D54FF0000EDCF1000C7EEB00006EEBB8
:100480000101B1F5801F1BD3B1F5001F0CD3490842
:100490005FEA30004FEA3C0C04F101044FEA445299
:1004A00012F5800F80F09A80BCF1004F08BF5FEA20
:1004B000500C50F1000041EB045141EA050130BD00
:1004C0005FEA4C0C404141EB0101013C28BFB1F512
:1004D000801FE9D291F0000F04BF01460020B1FA5D
:1004E00081F308BF2033A3F10B03B3F120020CDA30
:1004F0000C3208DD02F1140CC2F10C0201FA0CF00E
:1005000021FA02F10CE002F11402D8BFC2F1200C72
:1005100001FA02F120FA0CFCDCBF41EA0C01904028
:10052000E41AA2BF01EB0451294330BD6FEA040471
:100530001F3C1CDA0C340EDC04F11404C4F120025C
:1005400020FA04F001FA02F340EA030021FA04F36E
:1005500045EA030130BDC4F10C04C4F1200220FAC5
:1005600002F001FA04F340EA0300294630BD21FA03
:1005700004F0294630BD94F0000F83F4801306BFC9
:1005800081F480110134013D4EE77FEA645C18BFBD
:100590007FEA655C29D094EA050F08BF90EA020F54
:1005A00005D054EA000C04BF1946104630BD91EA4C
:1005B000030F1EBF0021002030BD5FEA545C05D14F
:1005C0004000494128BF41F0004130BD14F580048E
:1005D0003CBF01F5801130BD01F0004545F0FE4102
:1005E00041F470014FF0000030BD7FEA645C1ABF37
:1005F000194610467FEA655C1CBF0B46024650EA6E
:10060000013406BF52EA033591EA030F41F4002199
:1006100030BD00BF90F0000F04BF0021704730B51F
:100620004FF4806404F132044FF000054FF00001F4
:1006300050E700BF90F0000F04BF0021704730B5B5
:100640004FF4806404F1320410F0004548BF40428A
:100650004FF000013EE700BF42004FEAE2014FEADF
:1006600031014FEA02701FBF12F07F4393F07F4FBA
:1006700081F06051704732F07F4208BF704793F0BD
:100680007F4F04BF41F40021704730B54FF46074D0
:1006900001F0004521F000411CE700BF50EA0102D3
:1006A00008BF704730B54FF000050AE050EA01027C
:1006B00008BF704730B511F0004502D5404261EBEC
:1006C00041014FF4806404F132045FEA915C3FF42D
:1006D000D8AE4FF003025FEADC0C18BF03325FEACA
:1006E000DC0C18BF033202EBDC02C2F1200300FA7B
:1006F00003FC20FA02F001FA03FE40EA0E0021FAA0
:1007000002F11444BDE600BF70B54FF0FF0C4CF48D
:10071000E06C1CEA11541DBF1CEA135594EA0C0F3F
:1007200095EA0C0F00F0DEF82C4481EA030621EA7A
:100730004C5123EA4C5350EA013518BF52EA0335B5
:1007400041F4801143F4801338D0A0FB02CE4FF067
:100750000005E1FB02E506F00042E0FB03E54FF097
:100760000006E1FB03569CF0000F18BF4EF0010E8F
:10077000A4F1FF04B6F5007F64F5407404D25FEA8B
:100780004E0E6D4146EB060642EAC62141EA55513E
:100790004FEAC52040EA5E504FEACE2EB4F1FD0C80
:1007A00088BFBCF5E06F1ED8BEF1004F08BF5FEAFE
:1007B000500E50F1000041EB045170BD06F00046B0
:1007C00046EA010140EA020081EA0301B4EB5C045D
:1007D000C2BFD4EB0C0541EA045170BD41F4801155
:1007E0004FF0000E013C00F3AB8014F1360FDEBF7A
:1007F000002001F0004170BDC4F10004203C35DA56
:100800000C341BDC04F11404C4F1200500FA05F3D8
:1008100020FA04F001FA05F240EA020001F0004279
:1008200021F0004110EBD37021FA04F642EB0601EF
:100830005EEA430E08BF20EAD37070BDC4F10C0419
:10084000C4F1200500FA04F320FA05F001FA04F2DD
:1008500040EA020001F0004110EBD37041F10001C9
:100860005EEA430E08BF20EAD37070BDC4F12005D4
:1008700000FA05F24EEA020E20FA04F301FA05F23C
:1008800043EA020321FA04F001F0004121FA04F2E4
:1008900020EA020000EBD3705EEA430E08BF20EAB4
:1008A000D37070BD94F0000F0FD101F000464000EE
:1008B00041EB010111F4801F08BF013CF7D041EA70
:1008C000060195F0000F18BF704703F00046520074
:1008D00043EB030313F4801F08BF013DF7D043EA45
:1008E0000603704794EA0C0F0CEA135518BF95EAFB
:1008F0000C0F0CD050EA410618BF52EA4306D1D182
:1009000081EA030101F000414FF0000070BD50EAA0
:10091000410606BF1046194652EA430619D094EA2A
:100920000C0F02D150EA013613D195EA0C0F05D114
:1009300052EA03361CBF104619460AD181EA030168
:1009400001F0004141F0FE4141F470014FF0000020
:1009500070BD41F0FE4141F4780170BD70B54FF0BB
:10096000FF0C4CF4E06C1CEA11541DBF1CEA13553B
:1009700094EA0C0F95EA0C0F00F0A7F8A4EB05041D
:1009800081EA030E52EA03354FEA013100F0888014
:100990004FEA03334FF0805545EA131343EA1263DD
:1009A0004FEA022245EA111545EA10654FEA002692
:1009B0000EF000419D4208BF964244F1FD0404F54B
:1009C000407402D25B084FEA3202B61A65EB0305A7
:1009D0005B084FEA32024FF480104FF4002CB6EB64
:1009E000020E75EB030E22BFB61A754640EA0C00E4
:1009F0005B084FEA3202B6EB020E75EB030E22BF24
:100A0000B61A754640EA5C005B084FEA3202B6EB64
:100A1000020E75EB030E22BFB61A754640EA9C0023
:100A20005B084FEA3202B6EB020E75EB030E22BFF3
:100A3000B61A754640EADC0055EA060E18D04FEAB1
:100A4000051545EA16754FEA06164FEAC30343EA51
:100A500052734FEAC2025FEA1C1CC0D111F4801F1E
:100A60000BD141EA00014FF000004FF0004CB6E717
:100A700011F4801F04BF01430020B4F1FD0C88BFB6
:100A8000BCF5E06F3FF6AFAEB5EB030C04BFB6EBC1
:100A9000020C5FEA500C50F1000041EB045170BDB4
:100AA0000EF0004E4EEA113114EB5C04C2BFD4EBE1
:100AB0000C0541EA045170BD41F480114FF0000E65
:100AC000013C90E645EA060E8DE60CEA135594EAE1
:100AD0000C0F08BF95EA0C0F3FF43BAF94EA0C0FE4
:100AE0000AD150EA01347FF434AF95EA0C0F7FF459
:100AF00025AF104619462CE795EA0C0F06D152EAAD
:100B000003353FF4FDAE1046194622E750EA410690
:100B100018BF52EA43067FF4C5AE50EA41047FF4A1
:100B20000DAF52EA43057FF4EBAE12E74FF0FF3C06
:100B300006E000BF4FF0010C02E000BF4FF0010CD7
:100B40004DF804CD4FEA410C7FEA6C5C4FEA430C50
:100B500018BF7FEA6C5C1BD001B050EA410C0CBF9F
:100B600052EA430C91EA030F02BF90EA020F002001
:100B7000704710F1000F91EA030F58BF994208BF68
:100B800090422CBFD8176FEAE37040F00100704725
:100B90004FEA410C7FEA6C5C02D150EA013C07D17C
:100BA0004FEA430C7FEA6C5CD6D152EA033CD3D0C7
:100BB0005DF8040B704700BF8446104662468C46C1
:100BC0001946634600E000BF01B5FFF7B7FF0028F4
:100BD00048BF10F1000F01BD4DF808EDFFF7F4FF1D
:100BE0000CBF012000205DF808FB00BF4DF808EDA8
:100BF000FFF7EAFF34BF012000205DF808FB00BFCB
:100C00004DF808EDFFF7E0FF94BF012000205DF8EC
:100C100008FB00BF4DF808EDFFF7CEFF94BF0120A1
:100C200000205DF808FB00BF4DF808EDFFF7C4FF9A
:100C300034BF012000205DF808FB00BF4FEA410CE3
:100C40007FEA6C5C02D150EA013C0AD14FEA430CC6
:100C50007FEA6C5C02D152EA033C02D14FF0000003
:100C600070474FF0010070474FEA410212F5001241
:100C700015D211D56FF47873B3EB625212D94FEAE3
:100C8000C12343F0004343EA505311F0004F23FACD
:100C900002F018BF404270474FF00000704750EA22
:100CA000013005D111F0004008BF6FF000407047DF
:100CB0004FF00000704700BF0348044B834202D04E
:100CC000034B03B118477047DC010020DC01002012
:100CD000000000000548064B1B1AD90F01EBA301C9
:100CE000491002D0034B03B118477047DC010020C4
:100CF000DC0100200000000010B5064C237843B949
:100D0000FFF7DAFF044B13B10448AFF3008001236F
:100D1000237010BDDC01002000000000F4830008F7
:100D200008B5054B1BB105490548AFF30080BDE888
:100D30000840FFF7CFBF00BF00000000E001002027
:100D4000F483000880B582B000AF03F00BFC0223EF
:100D500002220521A02003F0D9FC03F0E7FE04F0F5
:100D600095F804F0B5F91F4B00221A601D4B0022C4
:100D70005A601C4B00229A600023FB7110E01A4A53
:100D8000FB7920334FF0FF3142F82310164AFB79EC
:100D900060334FF0FF3142F82310FB790133FB71D0
:100DA000FB79072BEBD9114805F03AFB104805F009
:100DB00037FB104805F034FB0F4B1B681A460F4BEE
:100DC0001A604FF010431B683B603B6883F3088850
:100DD00000BF0A4B1B6898474FF40051084800F0C9
:100DE000CFFAF9E710E000E000E100E0108400082D
:100DF000308400084C84000804000090F8010020B2
:100E000000080258DFF834D003F090FD0C480D497B
:100E10000D4A002302E0D458C4500433C4188C4255
:100E2000F9D30A4A0A4C002301E013600432A242BB
:100E3000FBD305F02DFCFFF785FF70470000022073
:100E400000000020DC010020A0880008DC01002058
:100E5000E0060020FEE7000080B485B000AF7860B7
:100E60007B6803F00703FB600B4BDB68BB60BA6871
:100E70004FF6FF031340BB60FB681A02BB681A43BE
:100E8000064B1343BB60044ABB68D36000BF1437F2
:100E9000BD465DF8047B704700ED00E00000FA05F8
:100EA00080B400AF044BDB681B0A03F0070318464D
:100EB000BD465DF8047B704700ED00E080B483B070
:100EC00000AF03463960FB80B7F90630002B0ADB20
:100ED0003B68DAB20C49B7F906301201D2B20B44C2
:100EE00083F800230AE03B68DAB20849FB8803F084
:100EF0000F03043B1201D2B20B441A7600BF0C3729
:100F0000BD465DF8047B704700E100E000ED00E0C5
:100F100080B489B000AFF860B9607A60FB6803F014
:100F20000703FB61FB69C3F10703042B28BF0423FC
:100F3000BB61FB690433062B02D9FB69033B00E06C
:100F400000237B614FF0FF32BB6902FA03F3DA43FF
:100F5000BB681A407B699A404FF0FF317B6901FA08
:100F600003F3D9437B680B40134318462437BD462F
:100F70005DF8047B7047000080B582B000AF7860F8
:100F80007B68013BB3F1807F01D301230FE00A4A64
:100F90007B68013B53600F214FF0FF30FFF78EFF5E
:100FA000054B00229A60044B07221A600023184662
:100FB0000837BD4680BD00BF10E000E080B582B0BC
:100FC00000AF78607868FFF747FF00BF0837BD467D
:100FD00080BD80B586B000AF0346B9607A60FB8102
:100FE000FFF75EFF78617A68B9687869FFF790FF6C
:100FF0000246B7F90E3011461846FFF75FFF00BFF3
:101000001837BD4680BD80B582B000AF7860786883
:10101000FFF7B2FF034618460837BD4680BD000003
:1010200080B489B000AF786039600023FB61894BE0
:101030007B6194E13B681A680121FB6901FA03F3C3
:1010400013403B613B69002B00F086813B685B6885
:1010500003F00303012B05D03B685B6803F0030337
:10106000022B30D17B689B68BB61FB695B0003226C
:1010700002FA03F3DB43BA691340BB613B68DA68E9
:10108000FB695B0002FA03F3BA691343BB617B6837
:10109000BA699A607B685B68BB610122FB6902FAEE
:1010A00003F3DB43BA691340BB613B685B681B0910
:1010B00003F00102FB6902FA03F3BA691343BB614F
:1010C0007B68BA695A603B685B6803F00303032BD3
:1010D00017D07B68DB68BB61FB695B00032202FA07
:1010E00003F3DB43BA691340BB613B689A68FB6951
:1010F0005B0002FA03F3BA691343BB617B68BA6908
:10110000DA603B685B6803F00303022B23D1FB69C1
:10111000DA087B68083253F82230BB61FB6903F0C0
:1011200007039B000F2202FA03F3DB43BA69134063
:10113000BB613B681A69FB6903F007039B0002FA75
:1011400003F3BA691343BB61FB69DA087B680832B1
:10115000B96943F822107B681B68BB61FB695B00BF
:10116000032202FA03F3DB43BA691340BB613B6815
:101170005B6803F00302FB695B0002FA03F3BA69E0
:101180001343BB617B68BA691A603B685B6803F410
:101190004033002B00F0E0802F4BD3F8F4302E4A80
:1011A00043F00203C2F8F4302B4BD3F8F43003F0D1
:1011B0000203FB60FB68294AFB699B08023352F873
:1011C0002330BB61FB6903F003039B000F2202FA8B
:1011D00003F3DB43BA691340BB617B68204A934247
:1011E00052D07B681F4A934231D07B681E4A93429B
:1011F0002BD07B681D4A934225D07B681C4A9342C2
:101200001FD07B681B4A934219D07B681A4A9342CD
:1012100013D07B68194A93420DD07B68184A9342D9
:1012200007D07B68174A934201D109232DE00A2396
:101230002BE0082329E0072327E0062325E00523E8
:1012400023E0042321E003231FE002231DE0012308
:101250001BE000BF80000058004402580004005802
:10126000000002580004025800080258000C0258FE
:10127000001002580014025800180258001C0258AE
:1012800000200258002402580023FA6902F00302E9
:1012900092009340BA691343BB613849FB699B08CC
:1012A0000233BA6941F823204FF0B0431B68BB6199
:1012B0003B69DB43BA691340BB613B685B6803F47D
:1012C0008013002B03D0BA693B691343BB614FF015
:1012D000B042BB6913604FF0B0435B68BB613B69D0
:1012E000DB43BA691340BB613B685B6803F40013DE
:1012F000002B03D0BA693B691343BB614FF0B04286
:10130000BB6953607B695B68BB613B69DB43BA695E
:101310001340BB613B685B6803F40033002B03D0D0
:10132000BA693B691343BB617B69BA695A607B69DF
:101330001B68BB613B69DB43BA691340BB613B6817
:101340005B6803F48033002B03D0BA693B69134315
:10135000BB617B69BA691A60FB690133FB613B6859
:101360001A68FB6922FA03F3002B7FF463AE00BF17
:1013700000BF2437BD465DF8047B70470004005869
:1013800080B485B000AF78600B467B807B685B697A
:10139000FB607A88FB6813401A04FB68D9437B889A
:1013A0000B401A437B689A6100BF1437BD465DF855
:1013B000047B704780B586B002AF786003F060F9B7
:1013C000F8607B68002B01D101235FE07B6893F814
:1013D0004130DBB2002B07D1786803F07FFC41F28B
:1013E0008831786800F0EAFA7B681B681B6823F490
:1013F000F8517B689B68013B1A027B681B680A43B3
:101400001A607B689B6C0093FB680022202178683F
:1014100000F0E2FA0346FB72FB7A002B35D17B68C1
:101420001B681A681B4B13407A68526811067A6869
:10143000D26811437A68D26911437A68126A1143FB
:101440007A6812680B4313607B681B685A68124BFA
:1014500013407A68126911047A68526911437A68F4
:10146000926911437A6812680B4353607B681B686A
:101470001A687B681B6842F001021A607B680022D0
:101480005A647B68012283F84120FB7A18461037A2
:10149000BD4680BD2FFFFF00FEF8E0FF80B582B0A3
:1014A00000AF78607B68002B01D1012312E07B68DC
:1014B0001B681A687B681B6822F001021A60786852
:1014C00000F00CF87B6800225A647B68002283F8E5
:1014D0004120002318460837BD4680BD80B483B044
:1014E00000AF786000BF0C37BD465DF8047B7047E5
:1014F00080B588B002AFF860B9607A6003F0C0F8D8
:101500003861FB6893F84030DBB2012B01D1022334
:1015100048E0FB68012283F84020FB6893F84130E3
:10152000DBB2012B37D1FB6800225A64FB68022230
:1015300083F841207B6800933B6900222021F868F2
:1015400000F04AFA0346FB75FB7D002B25D10022F3
:10155000B968F86800F077FABB685B6A002B15D1B0
:101560007B6800933B6901220221F86800F034FA9D
:101570000346FB75FB7D002B0FD1FB681B68022225
:10158000DA60FB68012283F8412006E0FB68012253
:1015900083F8412001E00223FB75FB68002283F8F9
:1015A0004020FB7D18461837BD4680BD80B58AB007
:1015B00002AFF860B9607A600023FB7703F060F84F
:1015C000B861FB681B6820337B61FB6893F840308F
:1015D000DBB2012B01D1022376E0FB68012283F804
:1015E0004020FB6893F84130DBB2012B65D1FB68EA
:1015F00000225A64BB68002B56D0FB68122283F885
:101600004120FB681B681B695A1CFB68DA62FB6897
:101610001B681B695A1CFB689A62FB68BA685A62AD
:10162000FB681B685A69FB681B6822F040625A61BC
:101630001BE07B680093BB6901220421F86800F07D
:10164000CBF90346FB77FB7F002B13D1FB685B6A6A
:101650001A787B691A70FB685B6A5A1CFB685A62CD
:10166000FB68DB6A5A1EFB68DA62FB68DB6A002BE8
:10167000DFD100E000BFFB7F002B10D17B6800931F
:10168000BB6901220221F86800F0A6F90346FB7746
:10169000FB7F002B03D1FB681B680222DA60FB682A
:1016A000012283F841200AE0FB685B6C43F00802EA
:1016B000FB685A640123FB7701E00223FB77FB6898
:1016C000002283F84020FB7F18462037BD4680BDAE
:1016D00080B58AB002AFF860B9607A600023FB770A
:1016E00002F0CEFFB861FB681B689B697B61FB68F9
:1016F0001B6820333B61FB6893F84030DBB2012B61
:1017000001D102237DE0FB68012283F84020FB68C1
:1017100093F84130DBB2012B6CD1FB6800225A6494
:10172000BB68002B5DD0FB68222283F84120FB6858
:101730001B681B695A1CFB689A63FB681B681B6962
:101740005A1CFB685A63FB68BA681A63FB681B681B
:101750005B6923F04062FB681B6842F080625A615B
:10176000FB681B687A699A611CE07B680093BB691F
:1017700001220621F86800F02FF90346FB77FB7F72
:10178000002B14D1FB681B6B3A691278D2B21A7025
:10179000FB681B6B5A1CFB681A63FB689B6B5A1E29
:1017A000FB689A63FB689B6B002BDED100E000BFF7
:1017B000FB7F002B10D17B680093BB6901220221C3
:1017C000F86800F009F90346FB77FB7F002B03D193
:1017D000FB681B680222DA60FB68012283F8412063
:1017E0000AE0FB685B6C43F00802FB685A64012363
:1017F000FB7701E00223FB77FB68002283F840209F
:10180000FB7F18462037BD4680BD80B588B002AF4B
:10181000F860B9607A603B6002F032FF3861FB68C3
:1018200093F84030DBB2012B01D1022360E0FB686A
:10183000012283F84020FB6893F84130DBB2012B92
:101840004FD1FB6800225A64FB68422283F8412092
:101850003B6800933B6900222021F86800F0BCF847
:101860000346FB75FB7D002B3DD1FB681B687A6846
:1018700012689A62FB681B687A6852685A62FB6851
:101880001B687A689268DA62FB681B681B6823F43D
:1018900040027B681B691A43FB681B6842F48002A4
:1018A0001A607B68DA68BB689A624FF00062B968B8
:1018B000F86800F0C8F83B6800933B6901220821F2
:1018C000F86800F089F80346FB75FB7D002B0AD110
:1018D000FB681B680822DA60FB68012283F841205C
:1018E00001E00223FB75FB68002283F84020FB7DAA
:1018F00018461837BD4680BD80B588B002AFF86085
:10190000B9607A6002F0BCFE3861FB6893F8403041
:10191000DBB2012B01D102234CE0FB68012283F8EA
:101920004020FB6893F84130DBB2012B3BD1FB68D0
:1019300000225A64FB68822283F84120FB689B6C7A
:1019400000933B6900222021F86800F045F8034627
:10195000FB75FB7D002B28D1FB681B681B6823F0FF
:1019600008017B685A68FB681B680A431A607B6839
:101970005B68082B10D1FB681B687A6812681A63D1
:10198000FB681B681022DA60FB681B681A68FB683A
:101990001B6842F480121A604FF04062B968F86820
:1019A00000F051F801E00223FB75FB68002283F888
:1019B0004020FB7D18461837BD4680BD80B483B0FB
:1019C00000AF786039607B683A689A6400BF0C3772
:1019D000BD465DF8047B704780B584B000AFF86009
:1019E000B9603B601346FB711AE0BB69B3F1FF3F7E
:1019F00016D002F045FE02463B68D31ABA699A42F5
:101A000002D3BB69002B0BD1FB68042283F8412071
:101A1000FB685B6C43F00102FB685A6401230EE033
:101A2000FB681B689A68BB681340002B14BF012336
:101A30000023DBB21A46FB799A42D6D1002318461E
:101A40001037BD4680BD80B485B000AFF860B96086
:101A50007A60BB685B6A002B09D07B68B3F1406F8A
:101A600005D0BB689A6AFB681B68013A1A61BB68BB
:101A70009B69002B00F0B980BB681B6A002B5FD00C
:101A8000FB681B68BA689268DA61BB68DB69002B87
:101A900031D0BB68DA6ABB681B6B1A43BB685B6BEF
:101AA0001A43BB685B6A1A43BB685B699B041A43B1
:101AB000BB681B691A43BB681B6A1A43BB68DB68B7
:101AC0001A43BB68DB691A43BB689B691A43BB684E
:101AD0001B6842EA0301FB681B687A680A435A6183
:101AE0007B68B3F1406F00F02E81FB681B68BA6819
:101AF00052689A6127E1BB68DA6ABB681B6B1A43BC
:101B0000BB685B6B1A43BB685B6A1A43BB685B6963
:101B10009B041A43BB681B691A43BB681B6A1A43C0
:101B2000BB68DB691A43BB689B691A43BB681B68C7
:101B300042EA0301FB681B687A680A435A6102E1C2
:101B4000BB68DB69002B2ED0BB68DA6ABB681B6BF5
:101B50001A43BB685B6B1A43BB685B6A1A43BB687A
:101B60005B699B041A43BB681B6A1A43BB68DB684A
:101B70001A43BB68DB691A43BB689B691A43BB689D
:101B80001B6842EA0301FB681B687A680A435A61D2
:101B90007B68B3F1406F00F0D680FB681B68BA68C1
:101BA00052689A61CFE0BB68DA6ABB681B6B1A4364
:101BB000BB685B6B1A43BB685B6A1A43BB685B69B3
:101BC0009B041A43BB681B6A1A43BB68DB691A4350
:101BD000BB689B691A43BB681B6842EA0301FB6848
:101BE0001B687A680A435A61ADE0BB681B6A002B28
:101BF00058D0FB681B68BA689268DA61BB68DB6919
:101C0000002B2DD0BB68DA6ABB681B6B1A43BB681C
:101C10005B6B1A43BB685B6A1A43BB685B699B04D6
:101C20001A43BB681B691A43BB681B6A1A43BB682B
:101C3000DB681A43BB68DB691A43BB689B6942EAED
:101C40000301FB681B687A680A435A617B68B3F139
:101C5000406F78D0FB681B68BA6852689A6172E07E
:101C6000BB68DA6ABB681B6B1A43BB685B6B1A43C1
:101C7000BB685B6A1A43BB685B699B041A43BB6819
:101C80001B691A43BB681B6A1A43BB68DB691A43AA
:101C9000BB689B6942EA0301FB681B687A680A43D8
:101CA0005A6150E0BB68DB69002B2AD0BB68DA6A56
:101CB000BB681B6B1A43BB685B6B1A43BB685B6AF0
:101CC0001A43BB685B699B041A43BB681B6A1A43CF
:101CD000BB68DB681A43BB68DB691A43BB689B6956
:101CE00042EA0301FB681B687A680A435A617B6811
:101CF000B3F1406F27D0FB681B68BA6852689A61DD
:101D000021E0BB685B6A002B1DD0BB68DA6ABB6848
:101D10001B6B1A43BB685B6B1A43BB685B6A1A4355
:101D2000BB685B699B041A43BB681B6A1A43BB68A8
:101D3000DB691A43BB689B6942EA0301FB681B68C5
:101D40007A680A435A6100BF1437BD465DF8047BC8
:101D50007047000080B500AF01F044FA0246064B20
:101D60001B6A1B0903F007030449CB5C03F01F0344
:101D700022FA03F3184680BD004402580C8500087F
:101D800080B489B000AF7860A14B9B6A03F0030375
:101D9000BB619F4B9B6A1B0B03F03F037B619C4B1A
:101DA000DB6A1B0903F001033B61994BDB6BDB082A
:101DB000C3F30C033A6902FB03F307EE903AF8EE23
:101DC000677AC7ED037A7B69002B00F01181BB694C
:101DD000022B00F08380BB69022B00F2A180BB695B
:101DE000002B03D0BB69012B56D099E0884B1B68B0
:101DF00003F02003002B2DD0854B1B68DB0803F07C
:101E00000303844A22FA03F3BB60BB6807EE903AEF
:101E1000F8EE676A7B6907EE903AF8EE677A86EE2D
:101E2000A77A7B4B9B6BC3F3080307EE903AF8EE5F
:101E3000676A97ED036ADFED785AC6EE257A76EE8B
:101E4000A77AF7EE006A77EEA67A67EE277AC7EDF3
:101E5000077A87E07B6907EE903AF8EE677ADFED64
:101E60006F6A86EEA77A6A4B9B6BC3F3080307EE93
:101E7000903AF8EE676A97ED036ADFED675AC6EEAF
:101E8000257A76EEA77AF7EE006A77EEA67A67EE05
:101E9000277AC7ED077A65E07B6907EE903AF8EE9E
:101EA000677ADFED5F6A86EEA77A594B9B6BC3F3C7
:101EB000080307EE903AF8EE676A97ED036ADFEDE4
:101EC000565AC6EE257A76EEA77AF7EE006A77EED6
:101ED000A67A67EE277AC7ED077A43E07B6907EEBB
:101EE000903AF8EE677ADFED4F6A86EEA77A484BB4
:101EF0009B6BC3F3080307EE903AF8EE676A97ED21
:101F0000036ADFED455AC6EE257A76EEA77AF7EE3C
:101F1000006A77EEA67A67EE277AC7ED077A21E0A6
:101F20007B6907EE903AF8EE677ADFED3D6A86EE60
:101F3000A77A374B9B6BC3F3080307EE903AF8EE92
:101F4000676A97ED036ADFED345AC6EE257A76EEBE
:101F5000A77AF7EE006A77EEA67A67EE277AC7EDE2
:101F6000077A00BF2A4B9B6B5B0A03F07F0307EEE7
:101F7000903AF8EE677AB7EE007A37EE877AD7EDC7
:101F8000076AC6EE877AFCEEE77A17EE902A7B683E
:101F90001A601F4B9B6B1B0C03F07F0307EE903AFC
:101FA000F8EE677AB7EE007A37EE877AD7ED076AF0
:101FB000C6EE877AFCEEE77A17EE902A7B685A60C5
:101FC000134B9B6B1B0E03F07F0307EE903AF8EE6A
:101FD000677AB7EE007A37EE877AD7ED076AC6EEF2
:101FE000877AFCEEE77A17EE902A7B689A6008E021
:101FF0007B6800221A607B6800225A607B6800229E
:102000009A6000BF2437BD465DF8047B704700BF6F
:10201000004402580090D003000000460024744C95
:102020000024744A20BCBE4B80B489B000AF7860F5
:10203000A14B9B6A03F00303BB619F4B9B6A1B0D83
:1020400003F03F037B619C4BDB6A1B0A03F0010337
:102050003B61994B5B6CDB08C3F30C033A6902FBF1
:1020600003F307EE903AF8EE677AC7ED037A7B69DF
:10207000002B00F01181BB69022B00F08380BB694B
:10208000022B00F2A180BB69002B03D0BB69012B9E
:1020900056D099E0884B1B6803F02003002B2DD00D
:1020A000854B1B68DB0803F00303844A22FA03F321
:1020B000BB60BB6807EE903AF8EE676A7B6907EE93
:1020C000903AF8EE677A86EEA77A7B4B1B6CC3F3E7
:1020D000080307EE903AF8EE676A97ED036ADFEDC2
:1020E000785AC6EE257A76EEA77AF7EE006A77EE92
:1020F000A67A67EE277AC7ED077A87E07B6907EE55
:10210000903AF8EE677ADFED6F6A86EEA77A6A4B4F
:102110001B6CC3F3080307EE903AF8EE676A97ED7D
:10212000036ADFED675AC6EE257A76EEA77AF7EEF8
:10213000006A77EEA67A67EE277AC7ED077A65E040
:102140007B6907EE903AF8EE677ADFED5F6A86EE1C
:10215000A77A594B1B6CC3F3080307EE903AF8EECD
:10216000676A97ED036ADFED565AC6EE257A76EE7A
:10217000A77AF7EE006A77EEA67A67EE277AC7EDC0
:10218000077A43E07B6907EE903AF8EE677ADFED75
:102190004F6A86EEA77A484B1B6CC3F3080307EE21
:1021A000903AF8EE676A97ED036ADFED455AC6EE9E
:1021B000257A76EEA77AF7EE006A77EEA67A67EED2
:1021C000277AC7ED077A21E07B6907EE903AF8EEAF
:1021D000677ADFED3D6A86EEA77A374B1B6CC3F357
:1021E000080307EE903AF8EE676A97ED036ADFEDB1
:1021F000345AC6EE257A76EEA77AF7EE006A77EEC5
:10220000A67A67EE277AC7ED077A00BF2A4B1B6CC8
:102210005B0A03F07F0307EE903AF8EE677AB7EEB9
:10222000007A37EE877AD7ED076AC6EE877AFCEE3A
:10223000E77A17EE902A7B681A601F4B1B6C1B0C09
:1022400003F07F0307EE903AF8EE677AB7EE007A74
:1022500037EE877AD7ED076AC6EE877AFCEEE77A23
:1022600017EE902A7B685A60134B1B6C1B0E03F011
:102270007F0307EE903AF8EE677AB7EE007A37EE12
:10228000877AD7ED076AC6EE877AFCEEE77A17EE13
:10229000902A7B689A6008E07B6800221A607B685D
:1022A00000225A607B6800229A6000BF2437BD4636
:1022B0005DF8047B704700BF004402580090D003D3
:1022C000000000460024744C0024744A20BCBE4B1D
:1022D00080B58CB000AF78607B68002B02D1012301
:1022E00000F048BC7B681B6803F00103002B00F082
:1022F0008880994B1B6903F03803FB62964B9B6AFD
:10230000BB62FB6A102B07D0FB6A182B11D1BB6A8A
:1023100003F00303022B0CD18F4B1B6803F4003333
:10232000002B6DD07B685B68002B69D1012300F026
:1023300021BC7B685B68B3F5803F06D1864B1B6888
:10234000854A43F4803313602EE07B685B68002B82
:102350000CD1814B1B68804A23F4803313607E4B81
:102360001B687D4A23F4802313601DE07B685B6853
:10237000B3F5A02F0CD1784B1B68774A43F4802328
:102380001360754B1B68744A43F4803313600BE091
:10239000714B1B68704A23F4803313606E4B1B68CB
:1023A0006D4A23F4802313607B685B68002B13D095
:1023B00002F066F9786208E002F062F902467B6A90
:1023C000D31A642B01D90323D4E3634B1B6803F4B2
:1023D0000033002BF0D014E002F052F9786208E0EC
:1023E00002F04EF902467B6AD31A642B01D903230B
:1023F000C0E3594B1B6803F40033002BF0D100E01D
:1024000000BF7B681B6803F00203002B00F0CA804A
:10241000514B1B6903F038033B624F4B9B6AFB61D6
:102420003B6A002B07D03B6A182B56D1FB6903F09F
:102430000303002B51D1484B1B6803F00403002B0E
:1024400005D07B68DB68002B01D1012392E3424B6E
:102450001B6823F019027B68DB683F4913430B605C
:1024600002F00EF9786208E002F00AF902467B6A8F
:10247000D31A022B01D903237CE3374B1B6803F0EB
:102480000403002BF0D002F007F9034641F20302E7
:10249000934217D87B681B69402B08D12E4B5B6891
:1024A00023F47C332C4A43F4003353607AE02A4B04
:1024B0005B6823F47C327B681B691B03264913434A
:1024C0004B606FE0244B5B6823F0FE427B681B6926
:1024D0001B06214913434B6064E07B68DB68002BDB
:1024E00047D01D4B1B6823F019027B68DB681A4933
:1024F00013430B6002F0C4F8786208E002F0C0F801
:1025000002467B6AD31A022B01D9032332E3124B12
:102510001B6803F00403002BF0D002F0BDF8034663
:1025200041F20302934219D87B681B69402B08D102
:10253000094B5B6823F47C33074A43F40033536050
:1025400030E0054B5B6823F47C327B681B691B031E
:10255000014913434B6025E0004402589A4B5B68E5
:1025600023F0FE427B681B691B06974913434B60AF
:1025700018E0954B1B68944A23F00103136002F0A6
:102580007FF8786208E002F07BF802467B6AD31A93
:10259000022B01D90323EDE28B4B1B6803F00403EC
:1025A000002BF0D17B681B6803F01003002B00F0B8
:1025B000A980854B1B6903F03803BB61824B9B6A82
:1025C0007B61BB69082B07D0BB69182B3AD17B69AB
:1025D00003F00303012B35D17B4B1B6803F480739D
:1025E000002B05D07B68DB69802B01D00123C1E281
:1025F00002F052F8034641F20302934217D87B6877
:102600001B6A202B08D1704B5B6823F0F8436E4A9D
:1026100043F08043536075E06B4B5B6823F0F842F6
:102620007B681B6A9B06684913434B606AE0664BF4
:10263000DB6823F07C527B681B6A1B0662491343EC
:10264000CB605FE07B68DB69002B42D05E4B1B6890
:102650005D4A43F08003136002F012F8786208E0EC
:1026600002F00EF802467B6AD31A022B01D903232B
:1026700080E2554B1B6803F48073002BF0D002F00E
:102680000BF8034641F20302934217D87B681B6A9A
:10269000202B08D14C4B5B6823F0F8434A4A43F0A7
:1026A000804353602EE0484B5B6823F0F8427B6820
:1026B0001B6A9B06444913434B6023E0424BDB6893
:1026C00023F07C527B681B6A1B063F491343CB6097
:1026D00018E03D4B1B683C4A23F08003136001F077
:1026E000CFFF786208E001F0CBFF02467B6AD31A85
:1026F000022B01D903233DE2334B1B6803F48073A3
:10270000002BF0D17B681B6803F00803002B36D048
:102710007B685B69002B19D02B4B5B6F2A4A43F017
:102720000103536701F0ACFF786208E001F0A8FFF5
:1027300002467B6AD31A022B01D903231AE2224BE9
:102740005B6F03F00203002BF0D018E01E4B5B6FB1
:102750001D4A23F00103536701F092FF786208E0FD
:1027600001F08EFF02467B6AD31A022B01D90323A4
:1027700000E2154B5B6F03F00203002BF0D17B6886
:102780001B6803F02003002B39D07B689B69002B6A
:102790001CD00D4B1B680C4A43F48053136001F0AE
:1027A0006FFF786208E001F06BFF02467B6AD31A84
:1027B000022B01D90323DDE1034B1B6803F4005313
:1027C000002BF0D01BE000BF004402589B4B1B685D
:1027D0009A4A23F48053136001F052FF786208E0B4
:1027E00001F04EFF02467B6AD31A022B01D9032364
:1027F000C0E1924B1B6803F40053002BF0D17B68BF
:102800001B6803F00403002B00F081808C4B1B68D5
:102810008B4A43F48073136001F032FF786208E062
:1028200001F02EFF02467B6AD31A642B01D90323E1
:10283000A0E1834B1B6803F48073002BF0D07B680E
:102840009B68012B06D17D4B1B6F7C4A43F0010333
:1028500013672DE07B689B68002B0CD1774B1B6FB7
:10286000764A23F001031367744B1B6F734A23F0FE
:10287000040313671CE07B689B68052B0CD16F4B2E
:102880001B6F6E4A43F0040313676C4B1B6F6B4A5C
:1028900043F0010313670BE0684B1B6F674A23F09B
:1028A00001031367654B1B6F644A23F0040313672E
:1028B0007B689B68002B15D001F0E2FE78620AE08D
:1028C00001F0DEFE02467B6AD31A41F2883293425F
:1028D00001D903234EE1594B1B6F03F00203002B78
:1028E000EED014E001F0CCFE78620AE001F0C8FE00
:1028F00002467B6AD31A41F28832934201D90323FC
:1029000038E14E4B1B6F03F00203002BEED17B68C6
:102910005B6A002B00F02D81484B1B6903F03803E4
:10292000182B00F0BD807B685B6A022B40F09E8014
:10293000424B1B68414A23F08073136001F0A0FEF4
:10294000786208E001F09CFE02467B6AD31A022BF3
:1029500001D903230EE1394B1B6803F00073002BF0
:10296000F0D1364B9A6A374B13407A68916A7A688D
:10297000D26A12010A43314913438B627B681B6B95
:10298000013BC3F308027B685B6B013B5B029BB2BC
:102990001A437B689B6B013B1B0403F4FE031A4341
:1029A0007B68DB6B013B1B0603F0FE4323491343AB
:1029B0000B63224BDB6A214A23F00103D3621F4BD6
:1029C0005A6B214B13407A68926CD2001B49134317
:1029D0004B631A4BDB6A23F00C027B681B6C1749B4
:1029E0001343CB62154BDB6A23F002027B685B6CFE
:1029F00012491343CB62114BDB6A104A43F4803314
:102A0000D3620E4BDB6A0D4A43F40033D3620B4BA7
:102A1000DB6A0A4A43F48023D362084BDB6A074A25
:102A200043F00103D362054B1B68044A43F08073F3
:102A3000136001F025FE786211E000BF00440258E7
:102A4000004802580CFCFFFF0700FFFF01F018FED2
:102A500002467B6AD31A022B01D903238AE0474B33
:102A60001B6803F00073002BF0D082E0434B1B681F
:102A7000424A23F08073136001F002FE786208E09E
:102A800001F0FEFD02467B6AD31A022B01D9032313
:102A900070E03A4B1B6803F00073002BF0D168E044
:102AA000364B9B6A3B61354B1B6BFB607B685B6AFB
:102AB000012B31D03B6903F003027B689B6A9A4289
:102AC0002AD13B691B0903F03F027B68DB6A9A420B
:102AD00022D1FB68C3F308027B681B6B013B9A425F
:102AE0001AD1FB685B0A03F07F027B685B6B013BDA
:102AF0009A4211D1FB681B0C03F07F027B689B6B31
:102B0000013B9A4208D1FB681B0E03F07F027B68F1
:102B1000DB6B013B9A4201D001232BE0174B5B6B2F
:102B2000DB08C3F30C033B617B689B6C3A699A42F8
:102B30001FD0124BDB6A114A23F00103D36201F06C
:102B40009FFD786200BF01F09BFD02467B6A9342C5
:102B5000F9D00A4B5A6B0A4B13407A68926CD20038
:102B6000064913434B63054BDB6A044A43F00103F8
:102B7000D362002318463037BD4680BD004402585A
:102B80000700FFFF80B586B000AF786039607B68D2
:102B9000002B01D101239CE18A4B1B6803F00F033A
:102BA0003A689A4210D9874B1B6823F00F02854977
:102BB0003B6813430B60834B1B6803F00F033A68B9
:102BC0009A4201D0012384E17B681B6803F004036F
:102BD000002B10D07B681A697B4B9B6903F0700354
:102BE0009A4208D9784B9B6923F070027B681B6975
:102BF000754913438B617B681B6803F00803002B46
:102C000010D07B685A69704BDB6903F070039A42FD
:102C100008D96D4BDB6923F070027B685B696A49F8
:102C20001343CB617B681B6803F01003002B10D0AB
:102C30007B689A69644BDB6903F4E0639A4208D9C4
:102C4000614BDB6923F4E0627B689B695E49134357
:102C5000CB617B681B6803F02003002B10D07B68DE
:102C6000DA69594B1B6A03F070039A4208D9564B34
:102C70001B6A23F070027B68DB69534913430B62C4
:102C80007B681B6803F00203002B10D07B68DA68B6
:102C90004D4B9B6903F00F039A4208D94A4B9B693D
:102CA00023F00F027B68DB68474913438B617B6825
:102CB0001B6803F00103002B55D0434B9B6923F4A1
:102CC00070627B689B68404913438B617B685B68DB
:102CD000022B07D13C4B1B6803F40033002B21D19E
:102CE0000123F6E07B685B68032B07D1364B1B683A
:102CF00003F00073002B15D10123EAE07B685B68C9
:102D0000012B07D1304B1B6803F48073002B09D1D2
:102D10000123DEE02C4B1B6803F00403002B01D1E0
:102D20000123D6E0284B1B6923F007027B685B6810
:102D3000254913430B6101F0A3FC78610AE001F01F
:102D40009FFC02467B69D31A41F28832934201D933
:102D50000323BEE01C4B1B6903F038027B685B68F1
:102D6000DB009A42EBD17B681B6803F00203002B67
:102D700010D07B68DA68144B9B6903F00F039A420A
:102D800008D2114B9B6923F00F027B68DB680E4968
:102D900013438B610B4B1B6803F00F033A689A4295
:102DA00014D2084B1B6823F00F0206493B681343FB
:102DB0000B60044B1B6803F00F033A689A4205D07E
:102DC000012386E000200052004402587B681B6803
:102DD00003F00403002B10D07B681A693F4B9B69FA
:102DE00003F070039A4208D23C4B9B6923F07002B7
:102DF0007B681B69394913438B617B681B6803F04F
:102E00000803002B10D07B685A69344BDB6903F050
:102E100070039A4208D2314BDB6923F070027B6861
:102E20005B692E491343CB617B681B6803F0100379
:102E3000002B10D07B689A69284BDB6903F4E063B0
:102E40009A4208D2254BDB6923F4E0627B689B69D8
:102E500022491343CB617B681B6803F02003002BDE
:102E600010D07B68DA691D4B1B6A03F070039A422D
:102E700008D21A4B1B6A23F070027B68DB69174982
:102E800013430B6200F034F80246144B9B691B0A93
:102E900003F00F031249CB5C03F01F0322FA03F384
:102EA0003B610E4B9B6903F00F030D4AD35C03F0AB
:102EB0001F033A6922FA03F30A4A13600A4A3B697C
:102EC00013600A4B1B68184601F090FB0346FB7326
:102ED000FB7B18461837BD4680BD00BF0044025832
:102EE0000C8500080C0000200800002000000020D5
:102EF00080B489B000AFB34B1B6903F03803182BC3
:102F000000F2558101A252F823F000BF712F000892
:102F1000AF310008AF310008AF310008AF31000811
:102F2000AF310008AF310008AF310008972F00081B
:102F3000AF310008AF310008AF310008AF310008F1
:102F4000AF310008AF310008AF3100089D2F0008F5
:102F5000AF310008AF310008AF310008AF310008D1
:102F6000AF310008AF310008AF310008A32F0008CF
:102F7000944B1B6803F02003002B09D0914B1B6876
:102F8000DB0803F00303904A22FA03F3BB6111E16B
:102F90008D4BBB610EE18D4BBB610BE18C4BBB617B
:102FA00008E1884B9B6A03F003037B61854B9B6AB6
:102FB0001B0903F03F033B61824BDB6A03F0010313
:102FC000FB60804B5B6BDB08C3F30C03FA6802FB0E
:102FD00003F307EE903AF8EE677AC7ED027A3B69A1
:102FE000002B00F0E1807B69022B00F083807B697D
:102FF000022B00F2A1807B69002B03D07B69012B9F
:1030000056D099E06F4B1B6803F02003002B2DD0A6
:103010006C4B1B68DB0803F003036B4A22FA03F3D3
:103020007B607B6807EE903AF8EE676A3B6907EED3
:10303000903AF8EE677A86EEA77A624B1B6BC3F381
:10304000080307EE903AF8EE676A97ED026ADFED43
:10305000615AC6EE257A76EEA77AF7EE006A77EE29
:10306000A67A67EE277AC7ED077A87E03B6907EE15
:10307000903AF8EE677ADFED586A86EEA77A514B00
:103080001B6BC3F3080307EE903AF8EE676A97EDFF
:10309000026ADFED505AC6EE257A76EEA77AF7EE91
:1030A000006A77EEA67A67EE277AC7ED077A65E0C1
:1030B0003B6907EE903AF8EE677ADFED486A86EEF4
:1030C000A77A404B1B6BC3F3080307EE903AF8EE68
:1030D000676A97ED026ADFED3F5AC6EE257A76EE13
:1030E000A77AF7EE006A77EEA67A67EE277AC7ED41
:1030F000077A43E03B6907EE903AF8EE677ADFED36
:10310000386A86EEA77A2F4B1B6BC3F3080307EED2
:10311000903AF8EE676A97ED026ADFED2E5AC6EE36
:10312000257A76EEA77AF7EE006A77EEA67A67EE52
:10313000277AC7ED077A21E03B6907EE903AF8EE6F
:10314000677ADFED266A86EEA77A1E4B1B6BC3F308
:10315000080307EE903AF8EE676A97ED026ADFED32
:103160001D5AC6EE257A76EEA77AF7EE006A77EE5C
:10317000A67A67EE277AC7ED077A00BF114B1B6B63
:103180005B0A03F07F0301333B603B6807EE903A34
:10319000B8EE677AD7ED076AC6EE877AFCEEE77A73
:1031A00017EE903ABB6105E00023BB6102E0074BDC
:1031B000BB6100BFBB6918462437BD465DF8047B80
:1031C000704700BF004402580090D00300093D0042
:1031D00040787D01000000460024744C0024744AAD
:1031E00020BCBE4B80B582B000AFFFF781FE024627
:1031F000104B9B691B0A03F00F030F49CB5C03F0D4
:103200001F0322FA03F37B600A4B9B6903F00F0351
:10321000094AD35C03F01F037A6822FA03F3074AD2
:103220001360074A7B681360044B1B681846083715
:10323000BD4680BD004402580C8500080C000020EB
:103240000800002080B500AFFFF7CCFF0246064B18
:10325000DB691B0903F007030449CB5C03F01F0380
:1032600022FA03F3184680BD004402580C8500087A
:1032700080B500AFFFF7B6FF0246064BDB691B0ABD
:1032800003F007030449CB5C03F01F0322FA03F3A6
:10329000184680BD004402580C85000880B485B0F3
:1032A00000AF78607B6893F88430012B01D1022352
:1032B00027E07B68012283F884207B682422C3F8FE
:1032C00088207B681B681B68FB607B681B681A682A
:1032D0007B681B6822F001021A60FB6823F0005330
:1032E000FB607B6800225A667B681B68FA681A607C
:1032F0007B682022C3F888207B68002283F8842022
:10330000002318461437BD465DF8047B704780B52E
:1033100084B000AF786039607B6893F88430012B0B
:1033200001D102232DE07B68012283F884207B6891
:103330002422C3F888207B681B681B68FB607B68BD
:103340001B681A687B681B6822F001021A607B68A0
:103350001B689B6823F060417B681B683A680A43DE
:103360009A60786800F050F87B681B68FA681A6009
:103370007B682022C3F888207B68002283F88420A1
:10338000002318461037BD4680BD80B584B000AF1D
:10339000786039607B6893F88430012B01D1022377
:1033A0002DE07B68012283F884207B682422C3F807
:1033B00088207B681B681B68FB607B681B681A6839
:1033C0007B681B6822F001021A607B681B689B689F
:1033D00023F060617B681B683A680A439A607868EA
:1033E00000F012F87B681B68FA681A607B6820227C
:1033F000C3F888207B68002283F8842000231846C5
:103400001037BD4680BD000080B485B000AF786045
:103410007B685B6E002B08D17B680122A3F86A20D1
:103420007B680122A3F8682031E01023FB7310238E
:10343000BB737B681B689B685B0EDBB203F0070302
:103440007B737B681B689B685B0FDBB203F0070331
:103450003B73BB7B3A7B11498A5C02FB03F33A7BEB
:103460000F498A5C93FBF2F39AB27B68A3F86A2057
:10347000FB7B7A7B09498A5C02FB03F37A7B084970
:103480008A5C93FBF2F39AB27B68A3F8682000BFD2
:103490001437BD465DF8047B704700BFE484000824
:1034A000EC84000880B582B000AF78607B68002BA8
:1034B00001D1012342E07B68D3F88830002B06D18C
:1034C0007B68002283F88420786801F0CDFA7B685D
:1034D0002422C3F888207B681B681A687B681B68F5
:1034E00022F001021A60786800F0BAF80346012B56
:1034F00001D1012322E07B689B6A002B02D078680F
:1035000000F016FE7B681B685A687B681B6822F413
:1035100090425A607B681B689A687B681B6822F03F
:103520002A029A607B681B681A687B681B6842F0F5
:1035300001021A60786800F09DFE034618460837BD
:10354000BD4680BD80B58AB002AFF860B9603B600F
:103550001346FB80FB68D3F88830202B7BD1BB68F7
:10356000002B02D0FB88002B01D1012374E0FB6803
:103570000022C3F89020FB682122C3F8882001F0C4
:103580007FF87861FB68FA88A3F85420FB68FA8812
:10359000A3F85620FB689B68B3F5805F08D1FB68F1
:1035A0001B69002B04D10023FB61BB68BB6103E0F6
:1035B000BB68FB610023BB6130E03B6800937B6923
:1035C00000228021F86800F0FFFE0346002B05D0A2
:1035D000FB682022C3F8882003233DE0FB69002B11
:1035E0000BD1BB691B881A46FB681B68C2F3080233
:1035F0009A62BB690233BB6107E0FB691A78FB681A
:103600001B689A62FB690133FB61FB68B3F85630B3
:103610009BB2013B9AB2FB68A3F85620FB68B3F853
:1036200056309BB2002BC8D13B6800937B690022C7
:103630004021F86800F0C8FE0346002B05D0FB6867
:103640002022C3F88820032306E0FB682022C3F869
:103650008820002300E0022318462037BD4680BDA5
:103660002DE9B04F92B000AF7861002387F8423067
:103670007B699A687B691B691A437B695B691A439A
:103680007B69DB6913437B647B691B681A68BE4BEB
:1036900013407A691268796C0B4313607B691B686D
:1036A0005B6823F440517B69DA687B691B680A43D5
:1036B0005A607B699B697B647B691B68B34A934250
:1036C00004D07B691B6A7A6C13437B647B691B683B
:1036D0009A68AF4B13407A691268796C0B43936018
:1036E0007B691B68DB6A23F00F017B695A6A7B697F
:1036F0001B680A43DA627B691B68A64A934277D14A
:10370000A54B5B6D03F03803282B6DD801A252F84E
:1037100023F000BFB9370008E9370008E93700088F
:10372000E9370008E9370008E9370008E9370008F9
:10373000E9370008C1370008E9370008E937000811
:10374000E9370008E9370008E9370008E9370008D9
:10375000E9370008C9370008E9370008E9370008E9
:10376000E9370008E9370008E9370008E9370008B9
:10377000E9370008D1370008E9370008E9370008C1
:10378000E9370008E9370008E9370008E937000899
:10379000E9370008D9370008E9370008E937000899
:1037A000E9370008E9370008E9370008E937000879
:1037B000E9370008E1370008012387F8433022E2A7
:1037C000042387F843301EE2082387F843301AE2C7
:1037D000102387F8433016E2202387F8433012E2A3
:1037E000402387F843300EE2802387F843300AE213
:1037F0007B691B68694A934230D1674B5B6D03F06C
:103800000703052B26D801A252F823F0253800081B
:103810002D380008353800083D38000845380008C4
:103820004D380008002387F84330ECE1042387F883
:103830004330E8E1082387F84330E4E1102387F8B8
:103840004330E0E1202387F84330DCE1402387F870
:103850004330D8E1802387F84330D4E17B691B688B
:103860004F4A934230D14C4B5B6D03F00703052B5D
:1038700026D801A252F823F09138000899380008A0
:10388000A1380008A9380008B1380008B938000884
:10389000002387F84330B6E1042387F84330B2E1D0
:1038A000082387F84330AEE1102387F84330AAE1BC
:1038B000202387F84330A6E1402387F84330A2E174
:1038C000802387F843309EE17B691B68354A934229
:1038D00030D1314B5B6D03F00703052B26D801A2D5
:1038E00052F823F0FD380008053900080D390008AA
:1038F000153900081D39000825390008002387F80C
:10390000433080E1042387F843307CE1082387F8C3
:10391000433078E1102387F8433074E1202387F89F
:10392000433070E1402387F843306CE1802387F80F
:10393000433068E17B691B681B4A934242D1164BB6
:103940005B6D03F00703052B38D801A252F823F072
:10395000693900087139000879390008813900088F
:10396000AD390008B5390008002387F843304AE133
:10397000042387F8433046E1082387F8433042E1C7
:10398000102387F843303EE1F369FFCF000C005865
:10399000FFF4FF11001001400044025800440040B1
:1039A00000480040004C004000500040202387F8B1
:1039B000433028E1402387F8433024E1802387F80F
:1039C000433020E17B691B68CB4A934276D1CB4BD5
:1039D0005B6D03F03803282B6CD801A252F823F05A
:1039E000853A0008B53A0008B53A0008B53A00082B
:1039F000B53A0008B53A0008B53A0008B53A0008EB
:103A00008D3A0008B53A0008B53A0008B53A000802
:103A1000B53A0008B53A0008B53A0008B53A0008CA
:103A2000953A0008B53A0008B53A0008B53A0008DA
:103A3000B53A0008B53A0008B53A0008B53A0008AA
:103A40009D3A0008B53A0008B53A0008B53A0008B2
:103A5000B53A0008B53A0008B53A0008B53A00088A
:103A6000A53A0008B53A0008B53A0008B53A00088A
:103A7000B53A0008B53A0008B53A0008B53A00086A
:103A8000AD3A0008012387F84330BCE0042387F8EF
:103A90004330B8E0082387F84330B4E0102387F8B8
:103AA0004330B0E0202387F84330ACE0402387F870
:103AB0004330A8E0802387F84330A4E07B691B688B
:103AC0008F4A934230D18D4B5B6D03F00703052B7A
:103AD00026D801A252F823F0F13A0008F93A00087A
:103AE000013B0008093B0008113B0008193B000896
:103AF000002387F8433086E0042387F8433082E0D0
:103B0000082387F843307EE0102387F843307AE0BB
:103B1000202387F8433076E0402387F8433072E073
:103B2000802387F843306EE07B691B68754A9342B7
:103B300030D1724B5B6D03F00703052B26D801A231
:103B400052F823F05D3B0008653B00086D3B000820
:103B5000753B00087D3B0008853B0008002387F883
:103B6000433050E0042387F843304CE0082387F8C3
:103B7000433048E0102387F8433044E0202387F89F
:103B8000433040E0402387F843303CE0802387F80F
:103B9000433038E07B691B685B4A934230D1574B16
:103BA0009B6D03F00703052B26D801A252F823F0E2
:103BB000C93B0008D13B0008D93B0008E13B0008A5
:103BC000E93B0008F13B0008022387F843301AE084
:103BD000042387F8433016E0082387F8433012E0C7
:103BE000102387F843300EE0202387F843300AE0A3
:103BF000402387F8433006E0802387F8433002E013
:103C0000802387F843307B691B683F4A934240F02A
:103C1000F88097F84330202B46DC022BC0F28280DC
:103C2000023B1E2B7ED801A252F823F0AF3C0008C5
:103C3000253D0008B73C0008253D0008253D00084B
:103C4000253D0008C73C0008253D0008253D00082B
:103C5000253D0008253D0008253D0008253D0008BC
:103C6000253D0008D73C0008253D0008253D0008FB
:103C7000253D0008253D0008253D0008253D00089C
:103C8000253D0008253D0008253D0008253D00088C
:103C9000253D0008253D0008253D0008253D00087C
:103CA000253D0008173D0008402B37D03AE0FEF7CD
:103CB00051F8F8633CE007F124031846FEF760F87A
:103CC000BB6AFB6334E007F118031846FEF7ACF952
:103CD000FB69FB632CE0094B1B6803F02003002BFE
:103CE00016D0064B1B68DB0803F00303074A22FAD1
:103CF00003F3FB631CE000BF0014014000440258C2
:103D000000780040007C0040000C00580090D00378
:103D10009D4BFB630CE09D4BFB6309E04FF40043BC
:103D2000FB6305E00023FB63012387F8423000BFFB
:103D3000FB6B002B00F0DE817B695B6A944A32F8F2
:103D400013301A46FB6BB3FBF2F33B637B695A6893
:103D500013465B0013443A6B9A4205D37B695B6858
:103D60001B033A6B9A4203D9012387F84230C1E121
:103D7000FB6B0022BB60FA607B695B6A844A32F8A5
:103D800013309BB200223B607A60D7E90023D7E969
:103D90000201FCF785FA02460B46104619464FF021
:103DA00000024FF000030B0243EA1063020279693C
:103DB0004968490800200C46054612EB040843EB0D
:103DC00005097B695B6800229A46934652465B462A
:103DD00040464946FCF764FA02460B461346BB636D
:103DE000BB6BB3F5407F08D3BB6BB3F5801F04D228
:103DF0007B691B68BA6BDA607CE1012387F842308B
:103E000078E17B69DB69B3F5004F40F0C58097F836
:103E10004330202B48DC002B7BDB202B79D801A200
:103E200052F823F0AF3E0008B73E0008133F0008E9
:103E3000133F0008BF3E0008133F0008133F00086F
:103E4000133F0008CF3E0008133F0008133F00084F
:103E5000133F0008133F0008133F0008133F0008FA
:103E6000133F0008DF3E0008133F0008133F00081F
:103E7000133F0008133F0008133F0008133F0008DA
:103E8000133F0008133F0008133F0008133F0008CA
:103E9000133F0008133F0008133F0008133F0008BA
:103EA000133F0008053F0008402B2ED031E0FFF7FC
:103EB000C9F9F86333E0FFF7DBF9F8632FE007F1A6
:103EC00024031846FDF75CFFBB6AFB6327E007F19C
:103ED00018031846FEF7A8F8FB69FB631FE02D4B9B
:103EE0001B6803F02003002B09D02A4B1B68DB085A
:103EF00003F00303244A22FA03F3FB630FE0224B8F
:103F0000FB630CE0214BFB6309E04FF40043FB63D0
:103F100005E00023FB63012387F8423000BFFB6B01
:103F2000002B00F0E7807B695B6A194A32F8133096
:103F30001A46FB6BB3FBF2F35A007B695B685B08C4
:103F40001A447B695B68B2FBF3F3BB63BB6B0F2B5B
:103F500016D9BB6BB3F5803F12D2BB6B9BB223F07B
:103F60000F03FB86BB6B5B089BB203F007039AB29F
:103F7000FB8E1343FB867B691B68FA8EDA60B9E01F
:103F8000012387F84230B5E00090D00300093D00DE
:103F9000F48400080044025897F84330202B49DC91
:103FA000002B7CDB202B7AD801A252F823F000BF33
:103FB0003B400008434000089F4000089F40000825
:103FC0004B4000089F4000089F4000089F400008A9
:103FD0005B4000089F4000089F4000089F40000889
:103FE0009F4000089F4000089F4000089F40000835
:103FF0006B4000089F4000089F4000089F40000859
:104000009F4000089F4000089F4000089F40000814
:104010009F4000089F4000089F4000089F40000804
:104020009F4000089F4000089F4000089F400008F4
:1040300091400008402B2ED031E0FFF703F9F863E0
:1040400033E0FFF715F9F8632FE007F12403184672
:10405000FDF796FEBB6AFB6327E007F118031846DD
:10406000FDF7E2FFFB69FB631FE02D4B1B6803F0CC
:104070002003002B09D02A4B1B68DB0803F0030345
:10408000284A22FA03F3FB630FE0264BFB630CE0A4
:10409000254BFB6309E04FF40043FB6305E000237D
:1040A000FB63012387F8423000BFFB6B002B21D05C
:1040B0007B695B6A1D4A32F813301A46FB6BB3FB0F
:1040C000F2F27B695B685B081A447B695B68B2FB50
:1040D000F3F3BB63BB6B0F2B09D9BB6BB3F5803F0D
:1040E00005D2BB6B9AB27B691B68DA6002E00123E0
:1040F00087F842307B690122A3F86A207B6901229C
:10410000A3F868207B6900225A677B6900229A67BE
:1041100097F8423018464837BD46BDE8B08F00BF1B
:10412000004402580090D00300093D00F4840008C8
:1041300080B483B000AF78607B689B6A03F00103B2
:10414000002B0AD07B681B685B6823F400317B6816
:10415000DA6A7B681B680A435A607B689B6A03F0D3
:104160000203002B0AD07B681B685B6823F4803154
:104170007B681A6B7B681B680A435A607B689B6A82
:1041800003F00403002B0AD07B681B685B6823F4F0
:1041900080217B685A6B7B681B680A435A607B6886
:1041A0009B6A03F00803002B0AD07B681B685B68DE
:1041B00023F400417B689A6B7B681B680A435A6052
:1041C0007B689B6A03F01003002B0AD07B681B6896
:1041D0009B6823F480517B68DA6B7B681B680A4319
:1041E0009A607B689B6A03F02003002B0AD07B68EF
:1041F0001B689B6823F400517B681A6C7B681B6802
:104200000A439A607B689B6A03F04003002B1AD034
:104210007B681B685B6823F480117B685A6C7B6841
:104220001B680A435A607B685B6CB3F5801F0AD138
:104230007B681B685B6823F4C0017B689A6C7B68B1
:104240001B680A435A607B689B6A03F08003002B5B
:104250000AD07B681B685B6823F400217B68DA6CFA
:104260007B681B680A435A6000BF0C37BD465DF887
:10427000047B704780B598B002AF78607B680022FD
:10428000C3F8902000F0FCF978657B681B681B6818
:1042900003F00803082B2FD16FF07E4300937B6D52
:1042A00000224FF40011786800F08EF80346002BCE
:1042B00022D07B681B68BB63BB6B53E8003F7B630A
:1042C0007B6B23F080033B657B681B681A463B6D64
:1042D0007B643A64396C7A6C41E80023FB63FB6BC6
:1042E000002BE6D17B682022C3F888207B6800225F
:1042F00083F88420032363E07B681B681B6803F05A
:104300000403042B49D16FF07E4300937B6D0022A0
:104310004FF48001786800F057F80346002B3CD03A
:104320007B681B687B627B6A53E8003F3B623B6AA9
:1043300023F49073FB647B681B681A46FB6C3B6339
:10434000FA62F96A3A6B41E80023BB62BB6A002B50
:10435000E6D17B681B6808333B613B6953E8003F4B
:10436000FB60FB6823F00103BB647B681B680833B8
:10437000BA6CFA61BB61B969FA6941E800237B61F3
:104380007B69002BE5D17B682022C3F88C207B68F9
:10439000002283F88420032312E07B682022C3F8E4
:1043A00088207B682022C3F88C207B680022DA6694
:1043B0007B6800221A677B68002283F88420002330
:1043C00018465837BD4680BD80B584B000AFF86050
:1043D000B9603B601346FB7149E0BB69B3F1FF3F35
:1043E00045D000F04DF902463B68D31ABA699A42AB
:1043F00002D3BB69002B01D1032348E0FB681B6893
:104400001B6803F00403002B31D0FB681B68DB69D9
:1044100003F00803082B10D1FB681B6808221A62FE
:10442000F86800F039F8FB680822C3F89020FB68B0
:10443000002283F88420012329E0FB681B68DB69E4
:1044400003F40063B3F5006F11D1FB681B684FF4F0
:1044500000621A62F86800F01FF8FB682022C3F8B7
:104460009020FB68002283F8842003230FE0FB6880
:104470001B68DA69BB681340BA689A420CBF012313
:104480000023DBB21A46FB799A42A6D000231846D5
:104490001037BD4680BD000080B495B000AF786095
:1044A0007B681B687B637B6B53E8003F3B633B6B24
:1044B00023F49073FB647B681B681A46FB6C3B64B7
:1044C000FA63F96B3A6C41E80023BB63BB6B002BCA
:1044D000E6D17B681B6808333B623B6A53E8003FC8
:1044E000FB61FA691E4B1340BB647B681B68083391
:1044F000BA6CFA62BB62B96AFA6A41E800237B626D
:104500007B6A002BE5D17B68DB6E012B18D17B68C1
:104510001B68FB60FB6853E8003FBB60BB6823F08F
:1045200010037B647B681B681A467B6CBB617A61F5
:104530007969BA6941E800233B613B69002BE6D108
:104540007B682022C3F88C207B680022DA667B68B7
:1045500000225A6700BF5437BD465DF8047B7047A0
:10456000FEFFFFEF80B582B000AF0320FCF726FD11
:10457000FEF7BEFC0246154B9B691B0A03F00F03B6
:104580001349CB5C03F01F0322FA03F37B600F4B4C
:104590009B6903F00F030E4AD35C03F01F037A6894
:1045A00022FA03F30B4A13600B4A7B6813600F2057
:1045B00000F01CF80346002B01D0012302E000F0BC
:1045C0000DF8002318460837BD4680BD0044025848
:1045D0000C8500080C0000200800002080B400AF0B
:1045E00000BFBD465DF8047B7047000080B582B017
:1045F00000AF7860154B1B78002B01D1012321E01F
:10460000134B1A68114B1B7819464FF47A73B3FB9E
:10461000F1F3B2FBF3F31846FCF7F5FC0346002B6D
:1046200001D001230EE07B680F2B0AD800227968A5
:104630004FF0FF30FCF7CDFC064A7B681360002387
:1046400000E0012318460837BD4680BD0400002065
:10465000080000200000002080B400AF064B1B784B
:104660001A46064B1B681344044A136000BFBD463C
:104670005DF8047B704700BF04000020FC010020AF
:1046800080B400AF034B1B681846BD465DF8047B41
:10469000704700BFFC01002080B400AF034B1B68D3
:1046A0001B0C1846BD465DF8047B70470010005C8B
:1046B00080B400AF054B1B6A044A43F00103136248
:1046C00000BFBD465DF8047B704700BF0004005882
:1046D00080B400AF00BFBD465DF8047B704780B476
:1046E00000AF00BFFDE780B400AF00BFFDE780B4BE
:1046F00000AF00BFFDE780B400AF00BFFDE780B4AE
:1047000000AF00BFBD465DF8047B704780B5A2B026
:1047100000AFF860B9607A603B60002387F88730AB
:10472000454BDB68444A23F00403D36000237B61DC
:10473000424BDB6A414A23F00103D3623F4BDB6A01
:1047400003F001037B613C4B9B693B4A43F44043CC
:104750009361394B9B6903F440437B617B6900BFE4
:10476000354B9B6903F40053B3F5005FF8D1012387
:10477000BB614FF48033FB6100237B6200237B63CA
:104780000223FB6302233B64FB68BB64BB687B645E
:104790007B68FB643B683B650023FB650823BB65C6
:1047A00007F118031846FDF793FD034687F8873095
:1047B00097F88730002B01D0012338E03F237B6638
:1047C0000323BB660023FB6608233B674023BB67CC
:1047D0004FF48063FB6740237B675023C7F880302A
:1047E00007F1640302211846FEF7CCF9034687F867
:1047F000873097F88730002B01D0012317E0104B4A
:104800001B680F4A43F0800313600D4BD3F8F4305C
:104810000B4A43F00203C2F8F430094BD3F8F430EA
:1048200003F002033B613B69FFF742FF0023184698
:104830008837BD4680BD00BF0048025800040058BC
:104840000044025880B400AF01231846BD465DF80D
:10485000047B704780B582B000AF7860396001F0AA
:1048600011FF034616221A604FF0FF33184608372F
:10487000BD4680BD80B582B000AF78604FF0FF319B
:104880007868FFF7E7FF00BFFDE780B586B000AFAF
:10489000F860B9607A6000237B610AE0AFF30080C2
:1048A0000146BB685A1CBA60CAB21A707B690133F0
:1048B0007B617A697B689A42F0DB7B68184618371F
:1048C000BD4680BD80B483B000AF78604FF0FF3349
:1048D00018460C37BD465DF8047B704780B483B042
:1048E00000AF786039603B684FF400525A60002393
:1048F00018460C37BD465DF8047B704780B483B022
:1049000000AF7860012318460C37BD465DF8047B84
:10491000704780B485B000AFF860B9607A6000235A
:1049200018461437BD465DF8047B704780B400AF6D
:10493000374BD3F88830364A43F47003C2F88830D6
:10494000344B1B6803F00F03062B07D8314B1B6851
:1049500023F00F032F4A43F0070313602E4B1B680D
:104960002D4A43F0010313602B4B00221A612A4B9E
:104970001A682949294B13400B60264B1B6803F02A
:104980000803002B07D0234B1B6823F00F03214A99
:1049900043F007031360204B00229A611E4B002254
:1049A000DA611D4B00221A621B4B1D4A9A621A4B98
:1049B0001C4ADA62184B1C4A1A63174B00225A63CE
:1049C000154B194A9A63144B0022DA63124B164AAC
:1049D0001A64114B00225A640F4B1B680E4A23F4D1
:1049E000802313600C4B00221A66104B1A68104B80
:1049F0001340B3F1005F02D20E4B01221A600E4B3E
:104A000043F2D2021A6000BFBD465DF8047B7047D6
:104A100000ED00E000200052004402587FEDF6EA6D
:104A2000000202020000FF01800201010010005C90
:104A30000000FFFF088100510040005280B584B0A3
:104A400000AFF860B9607A607B689AB24FF0FF33CC
:104A5000B9680448FEF776FD7B6818461037BD46F6
:104A600080BD00BF5002002080B58AB000AF7860E2
:104A700007F1140300221A605A609A60DA601A6122
:104A80007B681B68264A934246D1264BD3F8F03008
:104A9000244A43F01003C2F8F030224BD3F8F03030
:104AA00003F010033B613B691E4BD3F8E0301D4A15
:104AB00043F00103C2F8E0301A4BD3F8E03003F0C2
:104AC0000103FB60FB68174BD3F8E030154A43F055
:104AD0000103C2F8E030134BD3F8E03003F00103D8
:104AE000BB60BB684FF400737B610223BB61012391
:104AF000FB6103233B6207237B6207F11403194622
:104B00000948FCF78DFA4FF480637B6107F11403C9
:104B100019460548FCF784FA00BF2837BD4680BD1A
:104B200000100140004402580000025880B500AF58
:104B3000184B194A1A60174B4FF4E1325A60154B63
:104B400000229A60134B0022DA60124B00221A6195
:104B5000104B0C225A610F4B00229A610D4B002220
:104B6000DA610C4B00221A620A4B00225A62094B8E
:104B700000229A620748FEF795FC00210548FEF7DF
:104B8000C6FB00210348FEF700FC0248FEF786FB47
:104B900000BF80BD500200200010014080B590B0E1
:104BA00000AF0346FB7107F10803382200211846C5
:104BB00001F016FDC023BB604FF480733B624FF0E1
:104BC0008073FB6201233B63184B1B78012B05D1DB
:104BD0004FF440733B624FF04073FB6207F10803F0
:104BE00041F2883219461248FCF782FC0346002B3A
:104BF00004D0104B07221A70002313E0FB1D41F272
:104C0000883219460A48FCF7D1FC0346002B04D031
:104C1000084B09221A70002304E041F2883000F0AA
:104C20000BF8034618464037BD4680BD4D020020B4
:104C3000000200201000002080B596B000AF786020
:104C400007F1200338220021184601F0C9FC07F1C2
:104C5000080300221A605A609A60DA601A615A6189
:104C600005233B624FF48073BB634FF080737B641A
:104C7000174B1B78012B07D102237B634FF4407342
:104C8000BB634FF040737B640023BB6040F20113B1
:104C9000FB600023BB6102237B6110233B614FF467
:104CA0008003FB6107F1080207F120017B680948D6
:104CB000FCF7ABFD0346002B04D0074B0A221A7009
:104CC000002300E0012318465837BD4680BD00BFD1
:104CD0004D020020000200201000002080B58EB0A0
:104CE00000AF78607B681B68644A934240F0C280E2
:104CF000634BD3F8D430624A43F48043C2F8D430D3
:104D00005F4BD3F8D43003F480433B623B6A5C4B87
:104D1000DB6F5B4A43F48043D367594BDB6F584AE0
:104D200023F48043D367564BD3F8E030544A43F022
:104D30002003C2F8E030524BD3F8E03003F02003F8
:104D4000FB61FB694E4BD3F8E0304D4A43F0400322
:104D5000C2F8E0304A4BD3F8E03003F04003BB61C7
:104D6000BB69474BD3F8E030454A43F02003C2F813
:104D7000E030434BD3F8E03003F020037B617B69E4
:104D80003F4BD3F8E0303E4A43F02003C2F8E03016
:104D90003B4BD3F8E03003F020033B613B69384BD9
:104DA000D3F8E030364A43F02003C2F8E030344B09
:104DB000D3F8E03003F02003FB60FB68304BD3F8FE
:104DC000E0302F4A43F02003C2F8E0302C4BD3F8F8
:104DD000E03003F02003BB60BB6807F1240300222E
:104DE0001A605A609A60DA601A610223BB6200237B
:104DF000FB6203233B634FF480637B6209237B6385
:104E000007F1240319461F48FCF70AF940237B6287
:104E10000A237B6307F1240319461B48FCF700F9BA
:104E20004FF480737B620A237B6307F124031946E6
:104E30001448FCF7F5F84FF400737B620A237B6398
:104E400007F1240319460F48FCF7EAF880237B6238
:104E500009237B6307F1240319460A48FCF7E0F8AD
:104E600040237B6209237B6307F12403194605482D
:104E7000FCF7D6F800BF3837BD4680BD0050005261
:104E800000440258001402580018025880B586B039
:104E900000AF444BDB6F434A43F48043D367414B3D
:104EA000DB6F404A23F48043D3673F4B3B610023D1
:104EB0007B6107E03B695A1C3A6100221A707B69EA
:104EC00001337B617B694B2BF4D9374B374A1A602E
:104ED0003548FCF7E3FA344B344A1A60324B01226E
:104EE0005A60314B20229A602F4B1022DA602E4BF1
:104EF0004FF480625A612C4B00221A622A4B002226
:104F0000DA61294B01229A614FF08073BB60BB6864
:104F100093FAA3F37B607B68FB60FB68002B01D1F5
:104F2000202303E0FB68B3FA83F3DBB2013B1A46AC
:104F30001D4B1A611C48FCF73DFA00F019F90346B5
:104F4000002B04D11A4B0C221A70002325E000F02C
:104F500033F80346002B04D1154B0C221A700023A2
:104F60001BE041F28830FFF767FE0346002B04D1B7
:104F70000F4B02221A7000230FE000F05FF8034687
:104F80001A460C4B1A700B4B1B78002B04D1084BA4
:104F900003221A70002300E0012318461837BD468B
:104FA00080BD00BF004402580002002000500052A3
:104FB000100000204C02002080B58EB000AF3B46B0
:104FC00038220021184601F00BFB66233B604FF4AA
:104FD0008073BB61164B1B78012B02D14FF44073D9
:104FE0003B603B46642219461248FCF781FA0346AF
:104FF000002B04D0104B07221A70002313E09923D2
:105000003B603B46642219460A48FCF771FA0346A6
:10501000002B04D0084B07221A70002303E0044B36
:1050200000221A70012318463837BD4680BD00BFE4
:105030004D020020000200201000002080B590B03A
:1050400000AF07F1080338220021184601F0C8FA22
:10505000AB23BB604FF480733B624FF08073FB6205
:105060001823FB61174B1B78012B07D14FF44073BA
:105070003B620823FB614FF04073FB6201233B63FB
:1050800007F1080341F2883219460F48FCF730FA5D
:105090000346002B01D0002310E0FB1D41F28832B3
:1050A00019460948FCF714FB0346002B01D00023E6
:1050B00004E0FA79054B1A70044B1B781846403708
:1050C000BD4680BD4D020020000200204C020020A1
:1050D00080B590B000AF2020FFF760FD07F1080316
:1050E00038220021184601F07BFA3B4600221A6064
:1050F0005A60EB23BB604FF480733B624FF4406314
:105100007B624FF400537B614FF04073FB624FF4BE
:105110004043BB6200233B610023BB610423FB616E
:10512000104B1B78012B04D14FF440733B620423D6
:10513000FB6100237B6000233B603A4607F10803D4
:1051400019460948FCF7D8FB0346002B04D0074B4F
:105150000B221A70002300E0012318464037BD4699
:1051600080BD00BF4D020020000200201000002082
:1051700080B58EB000AF3B4638220021184601F0C2
:105180002FFA0023FB6100233B6200237B624FF474
:105190004073BB61FF233B600023FB6200237B6302
:1051A0003B4641F2883219460948FCF7A1F903460B
:1051B000002B04D0074B07221A70002303E0064B94
:1051C00000221A70012318463837BD4680BD00BF43
:1051D00000020020100000204D02002080B500AF2A
:1051E000FFF73AFA00F092F90346012B01D000F0E4
:1051F000FBF900BF80BD000080B588B000AF002380
:10520000FB617B4B1B68002B40F0E780794B1B68F0
:105210000133BB61774ABB691360BB69002B1BD1AB
:10522000754B1B681B68002B05D040F6B7227349ED
:10523000734801F08DF8704B1B687B61714B1B68E4
:105240006D4A13606F4A7B6913606F4B1B680133B3
:105250006D4A136000F03EF96C4B1B68BA699A42C4
:10526000C0F0A680644B1B681B68002B04D1674B01
:105270004FF0FF321A609BE05F4B1B68DB68DB6816
:105280003B613B695B68FB60BA69FB689A4203D289
:105290005E4AFB6813608BE03B695B69BB603B69FE
:1052A0009B683A69D2689A603B69DB683A699268A0
:1052B0005A60BB685A683B6904339A4203D13B6920
:1052C000DA68BB685A603B6900225A61BB681B6898
:1052D0005A1EBB681A603B699B6A002B1ED03B6953
:1052E0009B6A7B603B69DB693A69126A9A603B6939
:1052F0001B6A3A69D2695A607B685A683B691833FD
:105300009A4203D13B691A6A7B685A603B69002262
:105310009A627B681B685A1E7B681A603B69DB6A6D
:1053200001229A403A4B1B681343394A13603B6988
:10533000DA6A384913469B0013449B000B4404333C
:105340001B683B603B693A689A603B689A683B69B6
:10535000DA603B689B683A6904325A603B691A1DFF
:105360003B689A603B69DA6A13469B0013449B00D2
:10537000284A1A443B695A613B69DA6A254913464F
:105380009B0013449B000B441B68591C2148134687
:105390009B0013449B00034419603B69DA6A1E4B6F
:1053A0001B68DB6A9A427FF65DAF0123FB6159E718
:1053B000194B1B68DA6A174913469B0013449B007C
:1053C0000B441B68012B01D90123FB61134B1B68A4
:1053D000002B07D00123FB6104E0114B1B68013354
:1053E0000F4A1360FB6918462037BD4680BD00BFD9
:1053F0008C05002070050020680500206C840008E2
:10540000BC8400086C05002084050020880500206D
:1054100074050020E8020020E4020020800500203E
:105420007C05002080B584B000AF234B1B68002BA7
:1054300003D0224B01221A603AE0204B00221A606E
:105440001F4B1B687B607B68B3FA83F3FB70FB78B0
:10545000C3F11F03FB601B49FA6813469B0013440A
:105460009B000B441B68002B05D140F6F632164911
:10547000164800F06DFFFA6813469B0013449B002A
:10548000104A1344BB60BB685B685A68BB685A60CB
:10549000BB685A68BB6808339A4204D1BB685B6832
:1054A0005A68BB685A60BB685B68DB68084A13606F
:1054B00000BF1037BD4680BD8C0500208005002050
:1054C00074050020E80200206C840008BC840008F9
:1054D000E402002080B400AF0A4B1B681B68002B5D
:1054E00004D1094B4FF0FF321A6005E0054B1B68F1
:1054F000DB681B68044A136000BFBD465DF8047B8F
:10550000704700BF680500208805002080B483B084
:1055100000AF0B4B1B68002B02D101237B6008E01E
:10552000084B1B68002B02D102237B6001E00023A3
:105530007B607B6818460C37BD465DF8047B70477E
:10554000780500208C05002000000000000000000D
:10555000074B19680868B0E8F04F80F30988BFF37B
:105560006F8F4FF0000080F311887047AFF3008019
:10557000E402002000BF00BF0000000000000000A7
:10558000EFF30980BFF36F8F154B1A681EF0100FF1
:1055900008BF20ED108A20E9F04F10602DE90900C6
:1055A0004FF0500072B680F31188BFF34F8FBFF3F6
:1055B0006F8F62B6FFF736FF4FF0000080F311885F
:1055C00009BC19680868B0E8F04F1EF0100F08BF5A
:1055D000B0EC108A80F30988BFF36F8F704700BF6B
:1055E000E402002000BF00BF80B582B000AF4FF0E2
:1055F000500372B683F31188BFF36F8FBFF34F8FE1
:1056000062B67B6000BFFFF7F7FD0346002B03D0B7
:10561000064B4FF080521A6000233B603B6883F3D7
:10562000118800BF00BF0837BD4680BD04ED00E013
:105630002DE9F047089D0C46002B4ED194468C4531
:105640008646B2FA82F262D94AB1C2F12003914091
:1056500020FA03F30CFA02FC194300FA02FE4FEAA7
:105660001C471FFA8CF6B1FBF7F44FEA1E4307FB09
:10567000141143EA014304FB06F199420AD91CEBD9
:10568000030304F1FF3080F01281994240F20F8150
:10569000023C6344591A1FFA8EF3B1FBF7F007FB83
:1056A000101143EA014300FB06F69E420AD91CEBA7
:1056B000030300F1FF3180F0FC809E4240F2F9804C
:1056C000634402389B1B40EA044000211DB1D340D3
:1056D0000022C5E90032BDE8F0878B4205D90DB143
:1056E000C5E9000100210846F5E7B3FA83F1002976
:1056F00046D1A34202D39042C0F0F080861A64EBF8
:1057000003030120002DE6D0C5E90063E3E7002A8A
:1057100040F09080A1EB0C044FEA1C481FFA8CF774
:105720000121B4FBF8F64FEA1E4308FB164443EA96
:10573000044307FB06F0984208D91CEB030306F16B
:10574000FF3402D2984200F2CD8026461C1A1FFA7E
:105750008EF3B4FBF8F008FB104443EA044300FB6B
:1057600007F79F4208D91CEB030300F1FF3402D274
:105770009F4200F2B0802046DB1B40EA0640A5E7CE
:10578000C1F120068B4022FA06F71F4320FA06FCDF
:1057900004FA01F343EA0C03F44000FA01F8380C70
:1057A0004FEA1349B4FBF0FE1FFA87FC00FB1E44CE
:1057B00049EA04440EFB0CF9A14502FA01F20AD9A8
:1057C0003C190EF1FF3A80F08480A14540F28180BF
:1057D000AEF1020E3C44A4EB09041FFA83F9B4FBBA
:1057E000F0F300FB134449EA044403FB0CFCA4451A
:1057F00007D93C1903F1FF3067D2A44565D9023BB4
:105800003C4443EA0E40A0FB0293A4EB0C049C42F0
:10581000CE469C4651D34ED055B1B8EB0E0364EB47
:105820000C0404FA06F6CB401E43CC40C5E90064E4
:10583000002150E7C2F1200320FA03F10CFA02FC28
:1058400024FA03F394400C434FEA1C4800FA02FE8A
:105850001FFA8CF7B3FBF8F008FB1031230C43EA76
:10586000014300FB07F1994208D91CEB030300F147
:10587000FF362CD299422AD9023863445B1AA4B26B
:10588000B3FBF8F108FB113344EA034401FB07F3CF
:10589000A34208D91CEB040401F1FF3613D2A34242
:1058A00011D902396444E41A41EA004139E7044657
:1058B000F0E6084606E7C845AED2B9EB020E63EB48
:1058C000070C0138A8E73146EDE7034699E7304673
:1058D000D4E7D6467FE7634402384DE706462346C1
:1058E00008460FE7023E634430E700BF2DE9F04F62
:1058F00085B057EC106BDDE90E9B002F0C469046EF
:105900001946B8BF32463B462BF0200ABBBF07F111
:1059100000431F4600232D23B8BF1646BAF1460F99
:105920000B7005D0BAF1450F00D10134022100E01F
:10593000032103AB019302AB009347EC106B4B4682
:10594000224600F065FFBBF1670F054619D118F03C
:10595000010F0ED005EB0408002200233046394623
:10596000FBF73AF908B1CDF80C803022039B434590
:1059700021D3039B109A5B1B2846136005B0BDE83A
:10598000F08FBBF1470FE2D0BAF1460F00EB0408ED
:10599000E2D10378302B0AD1002200233046394669
:1059A000FBF71AF918B9C4F10104C9F80040D9F895
:1059B00000309844D0E7591C03911A70D6E7F7B528
:1059C0000029BABF49422D232B23092902704370B5
:1059D00029DD0DF107031D460A271A46B1FBF7F62C
:1059E00007FB1614303402F8014C0C46632C03F10B
:1059F000FF333146F1DC3031941E03F8011C411CA9
:105A00002346AB420AD30DF109039B1AAC4288BF6F
:105A1000002302330344181A03B0F0BD13F8016BDE
:105A200001F8016FEDE7302330318370C170031D41
:105A3000F1E700002DE9F04F8DB00C46DDF85880FD
:105A400016461F46054600F0D3FD0368049318462A
:105A5000FAF796FC00230A93D8F800300590073334
:105A600023F0070303F1080294F818A0D4F800B05B
:105A7000C8F80020D3E9008929F000430793CDF846
:105A80001880C4E91289DDE90601A04B4FF0FF320E
:105A9000FBF7D4F870BBDDE906019C4B4FF0FF32F9
:105AA000FBF7AEF830BB0022002340464946FBF727
:105AB0009DF810B12D2384F84330954A954BBAF1E7
:105AC000470F94BF90469846032323612BF00403AD
:105AD00023604FF00009009733460BAA2146284661
